{
  "contractName": "ERC20",
  "abi": [
    {
      "inputs": [],
      "stateMutability": "nonpayable",
      "type": "constructor"
    },
    {
      "anonymous": false,
      "inputs": [
        {
          "indexed": true,
          "internalType": "address",
          "name": "_owner",
          "type": "address"
        },
        {
          "indexed": true,
          "internalType": "address",
          "name": "_spender",
          "type": "address"
        },
        {
          "indexed": false,
          "internalType": "uint256",
          "name": "_value",
          "type": "uint256"
        }
      ],
      "name": "Approval",
      "type": "event"
    },
    {
      "anonymous": false,
      "inputs": [
        {
          "indexed": true,
          "internalType": "address",
          "name": "_from",
          "type": "address"
        },
        {
          "indexed": true,
          "internalType": "address",
          "name": "_to",
          "type": "address"
        },
        {
          "indexed": false,
          "internalType": "uint256",
          "name": "_value",
          "type": "uint256"
        }
      ],
      "name": "Transfer",
      "type": "event"
    },
    {
      "inputs": [],
      "name": "address_contract",
      "outputs": [
        {
          "internalType": "address",
          "name": "",
          "type": "address"
        }
      ],
      "stateMutability": "view",
      "type": "function"
    },
    {
      "inputs": [
        {
          "internalType": "address",
          "name": "",
          "type": "address"
        },
        {
          "internalType": "address",
          "name": "",
          "type": "address"
        }
      ],
      "name": "allowed",
      "outputs": [
        {
          "internalType": "uint256",
          "name": "",
          "type": "uint256"
        }
      ],
      "stateMutability": "view",
      "type": "function"
    },
    {
      "inputs": [
        {
          "internalType": "address",
          "name": "",
          "type": "address"
        }
      ],
      "name": "balances",
      "outputs": [
        {
          "internalType": "uint256",
          "name": "",
          "type": "uint256"
        }
      ],
      "stateMutability": "view",
      "type": "function"
    },
    {
      "inputs": [],
      "name": "decimals",
      "outputs": [
        {
          "internalType": "uint8",
          "name": "",
          "type": "uint8"
        }
      ],
      "stateMutability": "view",
      "type": "function"
    },
    {
      "inputs": [],
      "name": "minter",
      "outputs": [
        {
          "internalType": "address",
          "name": "",
          "type": "address"
        }
      ],
      "stateMutability": "view",
      "type": "function"
    },
    {
      "inputs": [],
      "name": "name",
      "outputs": [
        {
          "internalType": "string",
          "name": "",
          "type": "string"
        }
      ],
      "stateMutability": "view",
      "type": "function"
    },
    {
      "inputs": [],
      "name": "symbol",
      "outputs": [
        {
          "internalType": "string",
          "name": "",
          "type": "string"
        }
      ],
      "stateMutability": "view",
      "type": "function"
    },
    {
      "inputs": [],
      "name": "totalSupply",
      "outputs": [
        {
          "internalType": "uint256",
          "name": "",
          "type": "uint256"
        }
      ],
      "stateMutability": "view",
      "type": "function"
    },
    {
      "inputs": [
        {
          "internalType": "address",
          "name": "_to",
          "type": "address"
        },
        {
          "internalType": "uint256",
          "name": "_value",
          "type": "uint256"
        }
      ],
      "name": "transfer",
      "outputs": [
        {
          "internalType": "bool",
          "name": "success",
          "type": "bool"
        }
      ],
      "stateMutability": "nonpayable",
      "type": "function"
    },
    {
      "inputs": [
        {
          "internalType": "address",
          "name": "_from",
          "type": "address"
        },
        {
          "internalType": "address",
          "name": "_to",
          "type": "address"
        },
        {
          "internalType": "uint256",
          "name": "_value",
          "type": "uint256"
        }
      ],
      "name": "transferFrom",
      "outputs": [
        {
          "internalType": "bool",
          "name": "success",
          "type": "bool"
        }
      ],
      "stateMutability": "nonpayable",
      "type": "function"
    },
    {
      "inputs": [
        {
          "internalType": "address",
          "name": "from",
          "type": "address"
        }
      ],
      "name": "getBalance",
      "outputs": [
        {
          "internalType": "uint256",
          "name": "",
          "type": "uint256"
        }
      ],
      "stateMutability": "view",
      "type": "function"
    },
    {
      "inputs": [
        {
          "internalType": "address",
          "name": "_owner",
          "type": "address"
        }
      ],
      "name": "balanceOf",
      "outputs": [
        {
          "internalType": "uint256",
          "name": "balance",
          "type": "uint256"
        }
      ],
      "stateMutability": "view",
      "type": "function"
    },
    {
      "inputs": [
        {
          "internalType": "uint256",
          "name": "_value",
          "type": "uint256"
        }
      ],
      "name": "approve",
      "outputs": [
        {
          "internalType": "bool",
          "name": "success",
          "type": "bool"
        }
      ],
      "stateMutability": "nonpayable",
      "type": "function"
    },
    {
      "inputs": [
        {
          "internalType": "address",
          "name": "_owner",
          "type": "address"
        }
      ],
      "name": "allowance",
      "outputs": [
        {
          "internalType": "uint256",
          "name": "remaining",
          "type": "uint256"
        }
      ],
      "stateMutability": "view",
      "type": "function"
    },
    {
      "inputs": [
        {
          "internalType": "address",
          "name": "account",
          "type": "address"
        },
        {
          "internalType": "uint256",
          "name": "amount",
          "type": "uint256"
        }
      ],
      "name": "mint",
      "outputs": [],
      "stateMutability": "nonpayable",
      "type": "function"
    }
  ],
  "bytecode": "0x60806040523480156200001157600080fd5b50678ac7230489e800006000803073ffffffffffffffffffffffffffffffffffffffff1673ffffffffffffffffffffffffffffffffffffffff16815260200190815260200160002081905550678ac7230489e800006002819055506040518060400160405280600881526020017f4c75627947616d6500000000000000000000000000000000000000000000000081525060039080519060200190620000b9929190620001ac565b506012600460006101000a81548160ff021916908360ff1602179055506040518060400160405280600381526020017f4c424300000000000000000000000000000000000000000000000000000000008152506005908051906020019062000123929190620001ac565b5033600660006101000a81548173ffffffffffffffffffffffffffffffffffffffff021916908373ffffffffffffffffffffffffffffffffffffffff16021790555030600760006101000a81548173ffffffffffffffffffffffffffffffffffffffff021916908373ffffffffffffffffffffffffffffffffffffffff160217905550620002c0565b828054620001ba906200028b565b90600052602060002090601f016020900481019282620001de57600085556200022a565b82601f10620001f957805160ff19168380011785556200022a565b828001600101855582156200022a579182015b82811115620002295782518255916020019190600101906200020c565b5b5090506200023991906200023d565b5090565b5b80821115620002585760008160009055506001016200023e565b5090565b7f4e487b7100000000000000000000000000000000000000000000000000000000600052602260045260246000fd5b60006002820490506001821680620002a457607f821691505b602082108103620002ba57620002b96200025c565b5b50919050565b61149f80620002d06000396000f3fe608060405234801561001057600080fd5b50600436106100f55760003560e01c806340c10f191161009757806395d89b411161006657806395d89b411461029c578063a9059cbb146102ba578063b759f954146102ea578063f8b2cb4f1461031a576100f5565b806340c10f19146102025780635c6581651461021e57806370a082311461024e57806394eeb5f51461027e576100f5565b806323b872dd116100d357806323b872dd1461015457806327e235e314610184578063313ce567146101b45780633e5beab9146101d2576100f5565b806306fdde03146100fa578063075461721461011857806318160ddd14610136575b600080fd5b61010261034a565b60405161010f9190610eab565b60405180910390f35b6101206103d8565b60405161012d9190610f0e565b60405180910390f35b61013e6103fe565b60405161014b9190610f42565b60405180910390f35b61016e60048036038101906101699190610fba565b610404565b60405161017b9190611028565b60405180910390f35b61019e60048036038101906101999190611043565b6106ea565b6040516101ab9190610f42565b60405180910390f35b6101bc610702565b6040516101c9919061108c565b60405180910390f35b6101ec60048036038101906101e79190611043565b610715565b6040516101f99190610f42565b60405180910390f35b61021c600480360381019061021791906110a7565b61079b565b005b610238600480360381019061023391906110e7565b6108e2565b6040516102459190610f42565b60405180910390f35b61026860048036038101906102639190611043565b610907565b6040516102759190610f42565b60405180910390f35b61028661094f565b6040516102939190610f0e565b60405180910390f35b6102a4610975565b6040516102b19190610eab565b60405180910390f35b6102d460048036038101906102cf91906110a7565b610a03565b6040516102e19190611028565b60405180910390f35b61030460048036038101906102ff9190611127565b610c05565b6040516103119190611028565b60405180910390f35b610334600480360381019061032f9190611043565b610d18565b6040516103419190610f42565b60405180910390f35b6003805461035790611183565b80601f016020809104026020016040519081016040528092919081815260200182805461038390611183565b80156103d05780601f106103a5576101008083540402835291602001916103d0565b820191906000526020600020905b8154815290600101906020018083116103b357829003601f168201915b505050505081565b600660009054906101000a900473ffffffffffffffffffffffffffffffffffffffff1681565b60025481565b600080600160008673ffffffffffffffffffffffffffffffffffffffff1673ffffffffffffffffffffffffffffffffffffffff16815260200190815260200160002060008573ffffffffffffffffffffffffffffffffffffffff1673ffffffffffffffffffffffffffffffffffffffff168152602001908152602001600020549050826000808773ffffffffffffffffffffffffffffffffffffffff1673ffffffffffffffffffffffffffffffffffffffff16815260200190815260200160002054101580156104d45750828110155b610513576040517f08c379a000000000000000000000000000000000000000000000000000000000815260040161050a90611226565b60405180910390fd5b826000808673ffffffffffffffffffffffffffffffffffffffff1673ffffffffffffffffffffffffffffffffffffffff16815260200190815260200160002060008282546105619190611275565b92505081905550826000808773ffffffffffffffffffffffffffffffffffffffff1673ffffffffffffffffffffffffffffffffffffffff16815260200190815260200160002060008282546105b691906112cb565b925050819055507fffffffffffffffffffffffffffffffffffffffffffffffffffffffffffffffff8110156106795782600160008773ffffffffffffffffffffffffffffffffffffffff1673ffffffffffffffffffffffffffffffffffffffff16815260200190815260200160002060008673ffffffffffffffffffffffffffffffffffffffff1673ffffffffffffffffffffffffffffffffffffffff168152602001908152602001600020600082825461067191906112cb565b925050819055505b8373ffffffffffffffffffffffffffffffffffffffff168573ffffffffffffffffffffffffffffffffffffffff167fddf252ad1be2c89b69c2b068fc378daa952ba7f163c4a11628f55a4df523b3ef856040516106d69190610f42565b60405180910390a360019150509392505050565b60006020528060005260406000206000915090505481565b600460009054906101000a900460ff1681565b6000600160008373ffffffffffffffffffffffffffffffffffffffff1673ffffffffffffffffffffffffffffffffffffffff16815260200190815260200160002060003073ffffffffffffffffffffffffffffffffffffffff1673ffffffffffffffffffffffffffffffffffffffff168152602001908152602001600020549050919050565b600073ffffffffffffffffffffffffffffffffffffffff168273ffffffffffffffffffffffffffffffffffffffff160361080a576040517f08c379a00000000000000000000000000000000000000000000000000000000081526004016108019061134b565b60405180910390fd5b806002600082825461081c9190611275565b92505081905550806000808473ffffffffffffffffffffffffffffffffffffffff1673ffffffffffffffffffffffffffffffffffffffff16815260200190815260200160002060008282546108719190611275565b925050819055508173ffffffffffffffffffffffffffffffffffffffff16600073ffffffffffffffffffffffffffffffffffffffff167fddf252ad1be2c89b69c2b068fc378daa952ba7f163c4a11628f55a4df523b3ef836040516108d69190610f42565b60405180910390a35050565b6001602052816000526040600020602052806000526040600020600091509150505481565b60008060008373ffffffffffffffffffffffffffffffffffffffff1673ffffffffffffffffffffffffffffffffffffffff168152602001908152602001600020549050919050565b600760009054906101000a900473ffffffffffffffffffffffffffffffffffffffff1681565b6005805461098290611183565b80601f01602080910402602001604051908101604052809291908181526020018280546109ae90611183565b80156109fb5780601f106109d0576101008083540402835291602001916109fb565b820191906000526020600020905b8154815290600101906020018083116109de57829003601f168201915b505050505081565b600081600080600760009054906101000a900473ffffffffffffffffffffffffffffffffffffffff1673ffffffffffffffffffffffffffffffffffffffff1673ffffffffffffffffffffffffffffffffffffffff168152602001908152602001600020541015610aa8576040517f08c379a0000000000000000000000000000000000000000000000000000000008152600401610a9f906113dd565b60405180910390fd5b81600080600760009054906101000a900473ffffffffffffffffffffffffffffffffffffffff1673ffffffffffffffffffffffffffffffffffffffff1673ffffffffffffffffffffffffffffffffffffffff1681526020019081526020016000206000828254610b1891906112cb565b92505081905550816000808573ffffffffffffffffffffffffffffffffffffffff1673ffffffffffffffffffffffffffffffffffffffff1681526020019081526020016000206000828254610b6d9190611275565b925050819055508273ffffffffffffffffffffffffffffffffffffffff16600760009054906101000a900473ffffffffffffffffffffffffffffffffffffffff1673ffffffffffffffffffffffffffffffffffffffff167fddf252ad1be2c89b69c2b068fc378daa952ba7f163c4a11628f55a4df523b3ef84604051610bf39190610f42565b60405180910390a36001905092915050565b600081600160003373ffffffffffffffffffffffffffffffffffffffff1673ffffffffffffffffffffffffffffffffffffffff16815260200190815260200160002060003073ffffffffffffffffffffffffffffffffffffffff1673ffffffffffffffffffffffffffffffffffffffff16815260200190815260200160002081905550600660009054906101000a900473ffffffffffffffffffffffffffffffffffffffff1673ffffffffffffffffffffffffffffffffffffffff163373ffffffffffffffffffffffffffffffffffffffff167f8c5be1e5ebec7d5bd14f71427d1e84f3dd0314c0f7b2291e5b200ac8c7c3b92584604051610d079190610f42565b60405180910390a360019050919050565b6000600660009054906101000a900473ffffffffffffffffffffffffffffffffffffffff1673ffffffffffffffffffffffffffffffffffffffff168273ffffffffffffffffffffffffffffffffffffffff1614610daa576040517f08c379a0000000000000000000000000000000000000000000000000000000008152600401610da190611449565b60405180910390fd5b600080600760009054906101000a900473ffffffffffffffffffffffffffffffffffffffff1673ffffffffffffffffffffffffffffffffffffffff1673ffffffffffffffffffffffffffffffffffffffff168152602001908152602001600020549050919050565b600081519050919050565b600082825260208201905092915050565b60005b83811015610e4c578082015181840152602081019050610e31565b83811115610e5b576000848401525b50505050565b6000601f19601f8301169050919050565b6000610e7d82610e12565b610e878185610e1d565b9350610e97818560208601610e2e565b610ea081610e61565b840191505092915050565b60006020820190508181036000830152610ec58184610e72565b905092915050565b600073ffffffffffffffffffffffffffffffffffffffff82169050919050565b6000610ef882610ecd565b9050919050565b610f0881610eed565b82525050565b6000602082019050610f236000830184610eff565b92915050565b6000819050919050565b610f3c81610f29565b82525050565b6000602082019050610f576000830184610f33565b92915050565b600080fd5b610f6b81610eed565b8114610f7657600080fd5b50565b600081359050610f8881610f62565b92915050565b610f9781610f29565b8114610fa257600080fd5b50565b600081359050610fb481610f8e565b92915050565b600080600060608486031215610fd357610fd2610f5d565b5b6000610fe186828701610f79565b9350506020610ff286828701610f79565b925050604061100386828701610fa5565b9150509250925092565b60008115159050919050565b6110228161100d565b82525050565b600060208201905061103d6000830184611019565b92915050565b60006020828403121561105957611058610f5d565b5b600061106784828501610f79565b91505092915050565b600060ff82169050919050565b61108681611070565b82525050565b60006020820190506110a1600083018461107d565b92915050565b600080604083850312156110be576110bd610f5d565b5b60006110cc85828601610f79565b92505060206110dd85828601610fa5565b9150509250929050565b600080604083850312156110fe576110fd610f5d565b5b600061110c85828601610f79565b925050602061111d85828601610f79565b9150509250929050565b60006020828403121561113d5761113c610f5d565b5b600061114b84828501610fa5565b91505092915050565b7f4e487b7100000000000000000000000000000000000000000000000000000000600052602260045260246000fd5b6000600282049050600182168061119b57607f821691505b6020821081036111ae576111ad611154565b5b50919050565b7f746f6b656e2062616c616e6365206f7220616c6c6f77616e6365206973206c6f60008201527f776572207468616e20616d6f756e742072657175657374656400000000000000602082015250565b6000611210603983610e1d565b915061121b826111b4565b604082019050919050565b6000602082019050818103600083015261123f81611203565b9050919050565b7f4e487b7100000000000000000000000000000000000000000000000000000000600052601160045260246000fd5b600061128082610f29565b915061128b83610f29565b9250827fffffffffffffffffffffffffffffffffffffffffffffffffffffffffffffffff038211156112c0576112bf611246565b5b828201905092915050565b60006112d682610f29565b91506112e183610f29565b9250828210156112f4576112f3611246565b5b828203905092915050565b7f45524332303a206d696e7420746f20746865207a65726f206164647265737300600082015250565b6000611335601f83610e1d565b9150611340826112ff565b602082019050919050565b6000602082019050818103600083015261136481611328565b9050919050565b7f746f6b656e2062616c616e6365206973206c6f776572207468616e207468652060008201527f76616c7565207265717565737465640000000000000000000000000000000000602082015250565b60006113c7602f83610e1d565b91506113d28261136b565b604082019050919050565b600060208201905081810360008301526113f6816113ba565b9050919050565b7f4f6e6c79204f776e65722068617665207065726d697373696f6e732100000000600082015250565b6000611433601c83610e1d565b915061143e826113fd565b602082019050919050565b6000602082019050818103600083015261146281611426565b905091905056fea264697066735822122096a6fe9975185ac3913cfb6a76d63f73e2b30e2781c30735272ff73a1a7b3a5964736f6c634300080d0033",
  "immutableReferences": {},
  "source": "pragma solidity ^0.8.4;\r\n\r\n// https://eips.ethereum.org/EIPS/eip-20\r\n// SPDX-License-Identifier: MIT\r\nimport \"../hardhat/console.sol\";\r\n\r\ninterface Token {\r\n\t/// @param _owner The address from which the balance will be retrieved\r\n\t/// @return balance the balance\r\n\t// function balanceOf(address _owner) view returns (uint256 balance);\r\n\r\n\t/// @notice send `_value` token to `_to` from `msg.sender`\r\n\t/// @param _to The address of the recipient\r\n\t/// @param _value The amount of token to be transferred\r\n\t/// @return success Whether the transfer was successful or not\r\n\tfunction transfer(address _to, uint256 _value)\r\n\t\texternal\r\n\t\treturns (bool success);\r\n\r\n\t/// @notice send `_value` token to `_to` from `_from` on the condition it is approved by `_from`\r\n\t/// @param _from The address of the sender\r\n\t/// @param _to The address of the recipient\r\n\t/// @param _value The amount of token to be transferred\r\n\t/// @return success Whether the transfer was successful or not\r\n\tfunction transferFrom(\r\n\t\taddress _from,\r\n\t\taddress _to,\r\n\t\tuint256 _value\r\n\t) external returns (bool success);\r\n\r\n\t// / @notice `msg.sender` approves `_addr` to spend `_value` tokens\r\n\t// / @param _spender The address of the account able to transfer the tokens\r\n\t/// @param _value The amount of wei to be approved for transfer\r\n\t/// @return success Whether the approval was successful or not\r\n\tfunction approve(uint256 _value) external returns (bool success);\r\n\r\n\t/// @param _owner The address of the account owning tokens\r\n\t/// @return remaining Amount of remaining tokens allowed to spent\r\n\tfunction allowance(address _owner)\r\n\t\texternal\r\n\t\tview\r\n\t\treturns (uint256 remaining);\r\n\r\n\tfunction mint(address sender, uint256 amount) external;\r\n\r\n\tfunction getBalance(address from) external view returns (uint256);\r\n\r\n\tfunction balanceOf(address _owner) external view returns (uint256 balance);\r\n\r\n\tevent Transfer(address indexed _from, address indexed _to, uint256 _value);\r\n\tevent Approval(\r\n\t\taddress indexed _owner,\r\n\t\taddress indexed _spender,\r\n\t\tuint256 _value\r\n\t);\r\n}\r\n\r\ncontract ERC20 is Token {\r\n\tuint256 private constant MAX_UINT256 = 2**256 - 1;\r\n\r\n\tmapping(address => uint256) public balances;\r\n\tmapping(address => mapping(address => uint256)) public allowed;\r\n\r\n\tuint256 public totalSupply;\r\n\t/*\r\n\tNOTE:\r\n\tThe following variables are OPTIONAL vanities. One does not have to include them.\r\n\tThey allow one to customise the token contract & in no way influences the core functionality.\r\n\tSome wallets/interfaces might not even bother to look at this information.\r\n\t*/\r\n\tstring public name;\r\n\tuint8 public decimals;\r\n\tstring public symbol;\r\n\taddress public minter;\r\n\taddress public address_contract;\r\n\r\n\tconstructor() {\r\n\t\tbalances[address(this)] = 10 * 10**18; // Give the contract all initial tokens\r\n\t\ttotalSupply = 10 * 10**18; // Update total supply\r\n\t\tname = \"LubyGame\"; // Set the name for display purposes\r\n\t\tdecimals = 18; // Amount of decimals for display purposes\r\n\t\tsymbol = \"LBC\"; // Set the symbol for display purposes\r\n\t\tminter = msg.sender;\r\n\t\taddress_contract = address(this);\r\n\t}\r\n\r\n\tfunction transfer(address _to, uint256 _value)\r\n\t\tpublic\r\n\t\toverride\r\n\t\treturns (bool success)\r\n\t{\r\n\t\trequire(\r\n\t\t\tbalances[address_contract] >= _value,\r\n\t\t\t\"token balance is lower than the value requested\"\r\n\t\t);\r\n\t\tbalances[address_contract] -= _value;\r\n\t\tbalances[_to] += _value;\r\n\r\n\t\temit Transfer(address_contract, _to, _value); //solhint-disable-line indent, no-unused-vars\r\n\t\treturn true;\r\n\t}\r\n\r\n\tfunction transferFrom(\r\n\t\taddress _from,\r\n\t\taddress _to,\r\n\t\tuint256 _value\r\n\t) public override returns (bool success) {\r\n\t\tuint256 allowance = allowed[_from][_to];\r\n\r\n\t\trequire(\r\n\t\t\tbalances[_from] >= _value && allowance >= _value,\r\n\t\t\t\"token balance or allowance is lower than amount requested\"\r\n\t\t);\r\n\r\n\t\tbalances[_to] += _value;\r\n\t\tbalances[_from] -= _value;\r\n\r\n\t\tif (allowance < MAX_UINT256) {\r\n\t\t\tallowed[_from][_to] -= _value;\r\n\t\t}\r\n\r\n\t\temit Transfer(_from, _to, _value); //solhint-disable-line indent, no-unused-vars\r\n\t\treturn true;\r\n\t}\r\n\r\n\tfunction getBalance(address from) public view override returns (uint256) {\r\n\t\trequire(from == minter, \"Only Owner have permissions!\");\r\n\t\treturn balances[address_contract];\r\n\t}\r\n\r\n\tfunction balanceOf(address _owner)\r\n\t\tpublic\r\n\t\tview\r\n\t\toverride\r\n\t\treturns (uint256 balance)\r\n\t{\r\n\t\treturn balances[_owner];\r\n\t}\r\n\r\n\tfunction approve(uint256 _value) public override returns (bool success) {\r\n\t\tallowed[msg.sender][address(this)] = _value;\r\n\t\temit Approval(msg.sender, minter, _value); //solhint-disable-line indent, no-unused-vars\r\n\t\treturn true;\r\n\t}\r\n\r\n\tfunction allowance(address _owner)\r\n\t\tpublic\r\n\t\tview\r\n\t\toverride\r\n\t\treturns (uint256 remaining)\r\n\t{\r\n\t\treturn allowed[_owner][address(this)];\r\n\t}\r\n\r\n\tfunction mint(address account, uint256 amount) public override {\r\n\t\trequire(account != address(0), \"ERC20: mint to the zero address\");\r\n\r\n\t\ttotalSupply += amount;\r\n\t\tbalances[account] += amount;\r\n\r\n\t\temit Transfer(address(0), account, amount);\r\n\t}\r\n}\r\n",
  "sourcePath": "C:\\Users\\gtool\\Documents\\luby\\ProvaBlockchain\\new-lubygame-truffle\\contracts\\LubyCoin\\Bank.sol",
  "compiler": {
    "name": "solc",
    "version": "0.8.13+commit.abaa5c0e.Emscripten.clang"
  },
  "schemaVersion": "3.4.7",
  "updatedAt": "2022-05-04T12:49:15.074Z",
  "devdoc": {
    "kind": "dev",
    "methods": {
      "allowance(address)": {
        "params": {
          "_owner": "The address of the account owning tokens"
        },
        "returns": {
          "remaining": "Amount of remaining tokens allowed to spent"
        }
      },
      "approve(uint256)": {
        "params": {
          "_value": "The amount of wei to be approved for transfer"
        },
        "returns": {
          "success": "Whether the approval was successful or not"
        }
      },
      "transfer(address,uint256)": {
        "params": {
          "_to": "The address of the recipient",
          "_value": "The amount of token to be transferred"
        },
        "returns": {
          "success": "Whether the transfer was successful or not"
        }
      },
      "transferFrom(address,address,uint256)": {
        "params": {
          "_from": "The address of the sender",
          "_to": "The address of the recipient",
          "_value": "The amount of token to be transferred"
        },
        "returns": {
          "success": "Whether the transfer was successful or not"
        }
      }
    },
    "version": 1
  },
  "userdoc": {
    "kind": "user",
    "methods": {
      "transfer(address,uint256)": {
        "notice": "send `_value` token to `_to` from `msg.sender`"
      },
      "transferFrom(address,address,uint256)": {
        "notice": "send `_value` token to `_to` from `_from` on the condition it is approved by `_from`"
      }
    },
    "version": 1
  }
}