{
  "contractName": "LubyGame",
  "abi": [
    {
      "inputs": [],
      "stateMutability": "nonpayable",
      "type": "constructor"
    },
    {
      "anonymous": false,
      "inputs": [
        {
          "indexed": true,
          "internalType": "address",
          "name": "_owner",
          "type": "address"
        },
        {
          "indexed": true,
          "internalType": "address",
          "name": "_spender",
          "type": "address"
        },
        {
          "indexed": false,
          "internalType": "uint256",
          "name": "_value",
          "type": "uint256"
        }
      ],
      "name": "Approval",
      "type": "event"
    },
    {
      "anonymous": false,
      "inputs": [
        {
          "indexed": false,
          "internalType": "address",
          "name": "from",
          "type": "address"
        },
        {
          "indexed": false,
          "internalType": "address",
          "name": "to",
          "type": "address"
        },
        {
          "indexed": false,
          "internalType": "uint256",
          "name": "amount",
          "type": "uint256"
        }
      ],
      "name": "ClaimBalance",
      "type": "event"
    },
    {
      "anonymous": false,
      "inputs": [
        {
          "indexed": true,
          "internalType": "address",
          "name": "previousOwner",
          "type": "address"
        },
        {
          "indexed": true,
          "internalType": "address",
          "name": "newOwner",
          "type": "address"
        }
      ],
      "name": "OwnershipTransferred",
      "type": "event"
    },
    {
      "anonymous": false,
      "inputs": [
        {
          "indexed": false,
          "internalType": "address",
          "name": "from",
          "type": "address"
        },
        {
          "indexed": false,
          "internalType": "uint256",
          "name": "amount",
          "type": "uint256"
        }
      ],
      "name": "StartGame",
      "type": "event"
    },
    {
      "anonymous": false,
      "inputs": [
        {
          "indexed": true,
          "internalType": "address",
          "name": "_from",
          "type": "address"
        },
        {
          "indexed": true,
          "internalType": "address",
          "name": "_to",
          "type": "address"
        },
        {
          "indexed": false,
          "internalType": "uint256",
          "name": "_value",
          "type": "uint256"
        }
      ],
      "name": "Transfer",
      "type": "event"
    },
    {
      "anonymous": false,
      "inputs": [
        {
          "indexed": false,
          "internalType": "address",
          "name": "from",
          "type": "address"
        },
        {
          "indexed": false,
          "internalType": "address",
          "name": "to",
          "type": "address"
        },
        {
          "indexed": false,
          "internalType": "uint256",
          "name": "amount",
          "type": "uint256"
        }
      ],
      "name": "WithDraw",
      "type": "event"
    },
    {
      "inputs": [],
      "name": "address_contract",
      "outputs": [
        {
          "internalType": "address",
          "name": "",
          "type": "address"
        }
      ],
      "stateMutability": "view",
      "type": "function",
      "constant": true
    },
    {
      "inputs": [
        {
          "internalType": "address",
          "name": "_owner",
          "type": "address"
        }
      ],
      "name": "allowance",
      "outputs": [
        {
          "internalType": "uint256",
          "name": "remaining",
          "type": "uint256"
        }
      ],
      "stateMutability": "view",
      "type": "function",
      "constant": true
    },
    {
      "inputs": [
        {
          "internalType": "address",
          "name": "",
          "type": "address"
        },
        {
          "internalType": "address",
          "name": "",
          "type": "address"
        }
      ],
      "name": "allowed",
      "outputs": [
        {
          "internalType": "uint256",
          "name": "",
          "type": "uint256"
        }
      ],
      "stateMutability": "view",
      "type": "function",
      "constant": true
    },
    {
      "inputs": [
        {
          "internalType": "uint256",
          "name": "_value",
          "type": "uint256"
        }
      ],
      "name": "approve",
      "outputs": [
        {
          "internalType": "bool",
          "name": "success",
          "type": "bool"
        }
      ],
      "stateMutability": "nonpayable",
      "type": "function"
    },
    {
      "inputs": [
        {
          "internalType": "address",
          "name": "_owner",
          "type": "address"
        }
      ],
      "name": "balanceOf",
      "outputs": [
        {
          "internalType": "uint256",
          "name": "balance",
          "type": "uint256"
        }
      ],
      "stateMutability": "view",
      "type": "function",
      "constant": true
    },
    {
      "inputs": [
        {
          "internalType": "address",
          "name": "",
          "type": "address"
        }
      ],
      "name": "balances",
      "outputs": [
        {
          "internalType": "uint256",
          "name": "",
          "type": "uint256"
        }
      ],
      "stateMutability": "view",
      "type": "function",
      "constant": true
    },
    {
      "inputs": [],
      "name": "decimals",
      "outputs": [
        {
          "internalType": "uint8",
          "name": "",
          "type": "uint8"
        }
      ],
      "stateMutability": "view",
      "type": "function",
      "constant": true
    },
    {
      "inputs": [
        {
          "internalType": "address",
          "name": "from",
          "type": "address"
        }
      ],
      "name": "getBalance",
      "outputs": [
        {
          "internalType": "uint256",
          "name": "",
          "type": "uint256"
        }
      ],
      "stateMutability": "view",
      "type": "function",
      "constant": true
    },
    {
      "inputs": [
        {
          "internalType": "address",
          "name": "account",
          "type": "address"
        },
        {
          "internalType": "uint256",
          "name": "amount",
          "type": "uint256"
        }
      ],
      "name": "mint",
      "outputs": [],
      "stateMutability": "nonpayable",
      "type": "function"
    },
    {
      "inputs": [],
      "name": "minter",
      "outputs": [
        {
          "internalType": "address",
          "name": "",
          "type": "address"
        }
      ],
      "stateMutability": "view",
      "type": "function",
      "constant": true
    },
    {
      "inputs": [],
      "name": "name",
      "outputs": [
        {
          "internalType": "string",
          "name": "",
          "type": "string"
        }
      ],
      "stateMutability": "view",
      "type": "function",
      "constant": true
    },
    {
      "inputs": [],
      "name": "owner",
      "outputs": [
        {
          "internalType": "address",
          "name": "",
          "type": "address"
        }
      ],
      "stateMutability": "view",
      "type": "function",
      "constant": true
    },
    {
      "inputs": [],
      "name": "renounceOwnership",
      "outputs": [],
      "stateMutability": "nonpayable",
      "type": "function"
    },
    {
      "inputs": [],
      "name": "symbol",
      "outputs": [
        {
          "internalType": "string",
          "name": "",
          "type": "string"
        }
      ],
      "stateMutability": "view",
      "type": "function",
      "constant": true
    },
    {
      "inputs": [],
      "name": "totalSupply",
      "outputs": [
        {
          "internalType": "uint256",
          "name": "",
          "type": "uint256"
        }
      ],
      "stateMutability": "view",
      "type": "function",
      "constant": true
    },
    {
      "inputs": [
        {
          "internalType": "address",
          "name": "_to",
          "type": "address"
        },
        {
          "internalType": "uint256",
          "name": "_value",
          "type": "uint256"
        }
      ],
      "name": "transfer",
      "outputs": [
        {
          "internalType": "bool",
          "name": "success",
          "type": "bool"
        }
      ],
      "stateMutability": "nonpayable",
      "type": "function"
    },
    {
      "inputs": [
        {
          "internalType": "address",
          "name": "_from",
          "type": "address"
        },
        {
          "internalType": "address",
          "name": "_to",
          "type": "address"
        },
        {
          "internalType": "uint256",
          "name": "_value",
          "type": "uint256"
        }
      ],
      "name": "transferFrom",
      "outputs": [
        {
          "internalType": "bool",
          "name": "success",
          "type": "bool"
        }
      ],
      "stateMutability": "nonpayable",
      "type": "function"
    },
    {
      "inputs": [
        {
          "internalType": "address",
          "name": "newOwner",
          "type": "address"
        }
      ],
      "name": "transferOwnership",
      "outputs": [],
      "stateMutability": "nonpayable",
      "type": "function"
    },
    {
      "inputs": [
        {
          "internalType": "uint256",
          "name": "amount",
          "type": "uint256"
        }
      ],
      "name": "mintLbc",
      "outputs": [
        {
          "internalType": "bool",
          "name": "",
          "type": "bool"
        }
      ],
      "stateMutability": "nonpayable",
      "type": "function"
    },
    {
      "inputs": [
        {
          "internalType": "uint256",
          "name": "amount",
          "type": "uint256"
        }
      ],
      "name": "startGame",
      "outputs": [],
      "stateMutability": "nonpayable",
      "type": "function"
    },
    {
      "inputs": [
        {
          "internalType": "uint256",
          "name": "amount",
          "type": "uint256"
        }
      ],
      "name": "correctAnswer",
      "outputs": [],
      "stateMutability": "nonpayable",
      "type": "function"
    },
    {
      "inputs": [
        {
          "internalType": "uint256",
          "name": "amount",
          "type": "uint256"
        }
      ],
      "name": "incorrectAnswer",
      "outputs": [],
      "stateMutability": "nonpayable",
      "type": "function"
    },
    {
      "inputs": [],
      "name": "withdraw",
      "outputs": [],
      "stateMutability": "nonpayable",
      "type": "function"
    },
    {
      "inputs": [
        {
          "internalType": "uint256",
          "name": "bonus",
          "type": "uint256"
        }
      ],
      "name": "claimBalance",
      "outputs": [],
      "stateMutability": "nonpayable",
      "type": "function"
    },
    {
      "inputs": [],
      "name": "getBalanceIndividual",
      "outputs": [
        {
          "internalType": "uint256",
          "name": "balance",
          "type": "uint256"
        }
      ],
      "stateMutability": "view",
      "type": "function",
      "constant": true
    }
  ],
  "bytecode": "0x60806040523480156200001157600080fd5b50678ac7230489e800006000803073ffffffffffffffffffffffffffffffffffffffff1673ffffffffffffffffffffffffffffffffffffffff16815260200190815260200160002081905550678ac7230489e800006002819055506040518060400160405280600881526020017f4c75627947616d6500000000000000000000000000000000000000000000000081525060039080519060200190620000b9929190620002db565b506012600460006101000a81548160ff021916908360ff1602179055506040518060400160405280600381526020017f4c424300000000000000000000000000000000000000000000000000000000008152506005908051906020019062000123929190620002db565b5033600660006101000a81548173ffffffffffffffffffffffffffffffffffffffff021916908373ffffffffffffffffffffffffffffffffffffffff16021790555030600760006101000a81548173ffffffffffffffffffffffffffffffffffffffff021916908373ffffffffffffffffffffffffffffffffffffffff160217905550620001c6620001ba6200020d60201b60201c565b6200021560201b60201c565b30600a60006101000a81548173ffffffffffffffffffffffffffffffffffffffff021916908373ffffffffffffffffffffffffffffffffffffffff160217905550620003ef565b600033905090565b6000600860009054906101000a900473ffffffffffffffffffffffffffffffffffffffff16905081600860006101000a81548173ffffffffffffffffffffffffffffffffffffffff021916908373ffffffffffffffffffffffffffffffffffffffff1602179055508173ffffffffffffffffffffffffffffffffffffffff168173ffffffffffffffffffffffffffffffffffffffff167f8be0079c531659141344cd1fd0a4f28419497f9722a3daafe3b4186f6b6457e060405160405180910390a35050565b828054620002e990620003ba565b90600052602060002090601f0160209004810192826200030d576000855562000359565b82601f106200032857805160ff191683800117855562000359565b8280016001018555821562000359579182015b82811115620003585782518255916020019190600101906200033b565b5b5090506200036891906200036c565b5090565b5b80821115620003875760008160009055506001016200036d565b5090565b7f4e487b7100000000000000000000000000000000000000000000000000000000600052602260045260246000fd5b60006002820490506001821680620003d357607f821691505b602082108103620003e957620003e86200038b565b5b50919050565b6122a080620003ff6000396000f3fe608060405234801561001057600080fd5b50600436106101735760003560e01c806370a08231116100de578063a9059cbb11610097578063e5ed1d5911610071578063e5ed1d5914610450578063e9fad3961461046c578063f2fde38b14610488578063f8b2cb4f146104a457610173565b8063a9059cbb146103c0578063b759f954146103f0578063d075e09e1461042057610173565b806370a082311461030e578063715018a61461033e57806378fa151f146103485780638da5cb5b1461036657806394eeb5f51461038457806395d89b41146103a257610173565b8063335272b511610130578063335272b5146102505780633ccfd60b1461026c5780633e5beab91461027657806340c10f19146102a657806340d4a9ee146102c25780635c658165146102de57610173565b806306fdde0314610178578063075461721461019657806318160ddd146101b457806323b872dd146101d257806327e235e314610202578063313ce56714610232575b600080fd5b6101806104d4565b60405161018d91906119db565b60405180910390f35b61019e610562565b6040516101ab9190611a3e565b60405180910390f35b6101bc610588565b6040516101c99190611a72565b60405180910390f35b6101ec60048036038101906101e79190611aea565b61058e565b6040516101f99190611b58565b60405180910390f35b61021c60048036038101906102179190611b73565b610874565b6040516102299190611a72565b60405180910390f35b61023a61088c565b6040516102479190611bbc565b60405180910390f35b61026a60048036038101906102659190611bd7565b61089f565b005b6102746108fe565b005b610290600480360381019061028b9190611b73565b610b3c565b60405161029d9190611a72565b60405180910390f35b6102c060048036038101906102bb9190611c04565b610bc2565b005b6102dc60048036038101906102d79190611bd7565b610d09565b005b6102f860048036038101906102f39190611c44565b610d68565b6040516103059190611a72565b60405180910390f35b61032860048036038101906103239190611b73565b610d8d565b6040516103359190611a72565b60405180910390f35b610346610dd5565b005b610350610e5d565b60405161035d9190611a72565b60405180910390f35b61036e610ea4565b60405161037b9190611a3e565b60405180910390f35b61038c610ece565b6040516103999190611a3e565b60405180910390f35b6103aa610ef4565b6040516103b791906119db565b60405180910390f35b6103da60048036038101906103d59190611c04565b610f82565b6040516103e79190611b58565b60405180910390f35b61040a60048036038101906104059190611bd7565b611184565b6040516104179190611b58565b60405180910390f35b61043a60048036038101906104359190611bd7565b611297565b6040516104479190611b58565b60405180910390f35b61046a60048036038101906104659190611bd7565b611314565b005b61048660048036038101906104819190611bd7565b611449565b005b6104a2600480360381019061049d9190611b73565b611683565b005b6104be60048036038101906104b99190611b73565b61177a565b6040516104cb9190611a72565b60405180910390f35b600380546104e190611cb3565b80601f016020809104026020016040519081016040528092919081815260200182805461050d90611cb3565b801561055a5780601f1061052f5761010080835404028352916020019161055a565b820191906000526020600020905b81548152906001019060200180831161053d57829003601f168201915b505050505081565b600660009054906101000a900473ffffffffffffffffffffffffffffffffffffffff1681565b60025481565b600080600160008673ffffffffffffffffffffffffffffffffffffffff1673ffffffffffffffffffffffffffffffffffffffff16815260200190815260200160002060008573ffffffffffffffffffffffffffffffffffffffff1673ffffffffffffffffffffffffffffffffffffffff168152602001908152602001600020549050826000808773ffffffffffffffffffffffffffffffffffffffff1673ffffffffffffffffffffffffffffffffffffffff168152602001908152602001600020541015801561065e5750828110155b61069d576040517f08c379a000000000000000000000000000000000000000000000000000000000815260040161069490611d56565b60405180910390fd5b826000808673ffffffffffffffffffffffffffffffffffffffff1673ffffffffffffffffffffffffffffffffffffffff16815260200190815260200160002060008282546106eb9190611da5565b92505081905550826000808773ffffffffffffffffffffffffffffffffffffffff1673ffffffffffffffffffffffffffffffffffffffff16815260200190815260200160002060008282546107409190611dfb565b925050819055507fffffffffffffffffffffffffffffffffffffffffffffffffffffffffffffffff8110156108035782600160008773ffffffffffffffffffffffffffffffffffffffff1673ffffffffffffffffffffffffffffffffffffffff16815260200190815260200160002060008673ffffffffffffffffffffffffffffffffffffffff1673ffffffffffffffffffffffffffffffffffffffff16815260200190815260200160002060008282546107fb9190611dfb565b925050819055505b8373ffffffffffffffffffffffffffffffffffffffff168573ffffffffffffffffffffffffffffffffffffffff167fddf252ad1be2c89b69c2b068fc378daa952ba7f163c4a11628f55a4df523b3ef856040516108609190611a72565b60405180910390a360019150509392505050565b60006020528060005260406000206000915090505481565b600460009054906101000a900460ff1681565b600081905080600960003373ffffffffffffffffffffffffffffffffffffffff1673ffffffffffffffffffffffffffffffffffffffff16815260200190815260200160002060008282546108f39190611da5565b925050819055505050565b610906611874565b73ffffffffffffffffffffffffffffffffffffffff16610924610ea4565b73ffffffffffffffffffffffffffffffffffffffff161461097a576040517f08c379a000000000000000000000000000000000000000000000000000000000815260040161097190611e7b565b60405180910390fd5b6000600a60009054906101000a900473ffffffffffffffffffffffffffffffffffffffff1673ffffffffffffffffffffffffffffffffffffffff1663f8b2cb4f336040518263ffffffff1660e01b81526004016109d79190611a3e565b602060405180830381865afa1580156109f4573d6000803e3d6000fd5b505050506040513d601f19601f82011682018060405250810190610a189190611eb0565b905060008111610a5d576040517f08c379a0000000000000000000000000000000000000000000000000000000008152600401610a5490611f29565b60405180910390fd5b600a60009054906101000a900473ffffffffffffffffffffffffffffffffffffffff1673ffffffffffffffffffffffffffffffffffffffff1663a9059cbb33836040518363ffffffff1660e01b8152600401610aba929190611f49565b6020604051808303816000875af1158015610ad9573d6000803e3d6000fd5b505050506040513d601f19601f82011682018060405250810190610afd9190611f9e565b507fec37a407e13e9283023de85016cfda169c84b8f0e8dcda13c92311ab8fee7ad5303383604051610b3193929190611fcb565b60405180910390a150565b6000600160008373ffffffffffffffffffffffffffffffffffffffff1673ffffffffffffffffffffffffffffffffffffffff16815260200190815260200160002060003073ffffffffffffffffffffffffffffffffffffffff1673ffffffffffffffffffffffffffffffffffffffff168152602001908152602001600020549050919050565b600073ffffffffffffffffffffffffffffffffffffffff168273ffffffffffffffffffffffffffffffffffffffff1603610c31576040517f08c379a0000000000000000000000000000000000000000000000000000000008152600401610c289061204e565b60405180910390fd5b8060026000828254610c439190611da5565b92505081905550806000808473ffffffffffffffffffffffffffffffffffffffff1673ffffffffffffffffffffffffffffffffffffffff1681526020019081526020016000206000828254610c989190611da5565b925050819055508173ffffffffffffffffffffffffffffffffffffffff16600073ffffffffffffffffffffffffffffffffffffffff167fddf252ad1be2c89b69c2b068fc378daa952ba7f163c4a11628f55a4df523b3ef83604051610cfd9190611a72565b60405180910390a35050565b600081905080600960003373ffffffffffffffffffffffffffffffffffffffff1673ffffffffffffffffffffffffffffffffffffffff1681526020019081526020016000206000828254610d5d9190611dfb565b925050819055505050565b6001602052816000526040600020602052806000526040600020600091509150505481565b60008060008373ffffffffffffffffffffffffffffffffffffffff1673ffffffffffffffffffffffffffffffffffffffff168152602001908152602001600020549050919050565b610ddd611874565b73ffffffffffffffffffffffffffffffffffffffff16610dfb610ea4565b73ffffffffffffffffffffffffffffffffffffffff1614610e51576040517f08c379a0000000000000000000000000000000000000000000000000000000008152600401610e4890611e7b565b60405180910390fd5b610e5b600061187c565b565b6000600960003373ffffffffffffffffffffffffffffffffffffffff1673ffffffffffffffffffffffffffffffffffffffff16815260200190815260200160002054905090565b6000600860009054906101000a900473ffffffffffffffffffffffffffffffffffffffff16905090565b600760009054906101000a900473ffffffffffffffffffffffffffffffffffffffff1681565b60058054610f0190611cb3565b80601f0160208091040260200160405190810160405280929190818152602001828054610f2d90611cb3565b8015610f7a5780601f10610f4f57610100808354040283529160200191610f7a565b820191906000526020600020905b815481529060010190602001808311610f5d57829003601f168201915b505050505081565b600081600080600760009054906101000a900473ffffffffffffffffffffffffffffffffffffffff1673ffffffffffffffffffffffffffffffffffffffff1673ffffffffffffffffffffffffffffffffffffffff168152602001908152602001600020541015611027576040517f08c379a000000000000000000000000000000000000000000000000000000000815260040161101e906120e0565b60405180910390fd5b81600080600760009054906101000a900473ffffffffffffffffffffffffffffffffffffffff1673ffffffffffffffffffffffffffffffffffffffff1673ffffffffffffffffffffffffffffffffffffffff16815260200190815260200160002060008282546110979190611dfb565b92505081905550816000808573ffffffffffffffffffffffffffffffffffffffff1673ffffffffffffffffffffffffffffffffffffffff16815260200190815260200160002060008282546110ec9190611da5565b925050819055508273ffffffffffffffffffffffffffffffffffffffff16600760009054906101000a900473ffffffffffffffffffffffffffffffffffffffff1673ffffffffffffffffffffffffffffffffffffffff167fddf252ad1be2c89b69c2b068fc378daa952ba7f163c4a11628f55a4df523b3ef846040516111729190611a72565b60405180910390a36001905092915050565b600081600160003373ffffffffffffffffffffffffffffffffffffffff1673ffffffffffffffffffffffffffffffffffffffff16815260200190815260200160002060003073ffffffffffffffffffffffffffffffffffffffff1673ffffffffffffffffffffffffffffffffffffffff16815260200190815260200160002081905550600660009054906101000a900473ffffffffffffffffffffffffffffffffffffffff1673ffffffffffffffffffffffffffffffffffffffff163373ffffffffffffffffffffffffffffffffffffffff167f8c5be1e5ebec7d5bd14f71427d1e84f3dd0314c0f7b2291e5b200ac8c7c3b925846040516112869190611a72565b60405180910390a360019050919050565b6000803090508073ffffffffffffffffffffffffffffffffffffffff166340c10f1933856040518363ffffffff1660e01b81526004016112d8929190611f49565b600060405180830381600087803b1580156112f257600080fd5b505af1158015611306573d6000803e3d6000fd5b505050506001915050919050565b600a60009054906101000a900473ffffffffffffffffffffffffffffffffffffffff1673ffffffffffffffffffffffffffffffffffffffff166323b872dd3330846040518463ffffffff1660e01b815260040161137393929190611fcb565b6020604051808303816000875af1158015611392573d6000803e3d6000fd5b505050506040513d601f19601f820116820180604052508101906113b69190611f9e565b5080600960003373ffffffffffffffffffffffffffffffffffffffff1673ffffffffffffffffffffffffffffffffffffffff16815260200190815260200160002060008282546114069190611da5565b925050819055507f827a821cc7b9cae4c0baef42ee9cdeb791722ab1aa43532c255ea468ea6d5b1d338260405161143e929190611f49565b60405180910390a150565b6000600960003373ffffffffffffffffffffffffffffffffffffffff1673ffffffffffffffffffffffffffffffffffffffff16815260200190815260200160002054116114cb576040517f08c379a00000000000000000000000000000000000000000000000000000000081526004016114c29061214c565b60405180910390fd5b600a60009054906101000a900473ffffffffffffffffffffffffffffffffffffffff1673ffffffffffffffffffffffffffffffffffffffff1663a9059cbb3383600960003373ffffffffffffffffffffffffffffffffffffffff1673ffffffffffffffffffffffffffffffffffffffff168152602001908152602001600020546115559190611da5565b6040518363ffffffff1660e01b8152600401611572929190611f49565b6020604051808303816000875af1158015611591573d6000803e3d6000fd5b505050506040513d601f19601f820116820180604052508101906115b59190611f9e565b506000600960003373ffffffffffffffffffffffffffffffffffffffff1673ffffffffffffffffffffffffffffffffffffffff168152602001908152602001600020819055507fe43faf923664f15885a3df13dc48ec1028df5699618c436e8541460ef705ae83303383600960003373ffffffffffffffffffffffffffffffffffffffff1673ffffffffffffffffffffffffffffffffffffffff168152602001908152602001600020546116699190611da5565b60405161167893929190611fcb565b60405180910390a150565b61168b611874565b73ffffffffffffffffffffffffffffffffffffffff166116a9610ea4565b73ffffffffffffffffffffffffffffffffffffffff16146116ff576040517f08c379a00000000000000000000000000000000000000000000000000000000081526004016116f690611e7b565b60405180910390fd5b600073ffffffffffffffffffffffffffffffffffffffff168173ffffffffffffffffffffffffffffffffffffffff160361176e576040517f08c379a0000000000000000000000000000000000000000000000000000000008152600401611765906121de565b60405180910390fd5b6117778161187c565b50565b6000600660009054906101000a900473ffffffffffffffffffffffffffffffffffffffff1673ffffffffffffffffffffffffffffffffffffffff168273ffffffffffffffffffffffffffffffffffffffff161461180c576040517f08c379a00000000000000000000000000000000000000000000000000000000081526004016118039061224a565b60405180910390fd5b600080600760009054906101000a900473ffffffffffffffffffffffffffffffffffffffff1673ffffffffffffffffffffffffffffffffffffffff1673ffffffffffffffffffffffffffffffffffffffff168152602001908152602001600020549050919050565b600033905090565b6000600860009054906101000a900473ffffffffffffffffffffffffffffffffffffffff16905081600860006101000a81548173ffffffffffffffffffffffffffffffffffffffff021916908373ffffffffffffffffffffffffffffffffffffffff1602179055508173ffffffffffffffffffffffffffffffffffffffff168173ffffffffffffffffffffffffffffffffffffffff167f8be0079c531659141344cd1fd0a4f28419497f9722a3daafe3b4186f6b6457e060405160405180910390a35050565b600081519050919050565b600082825260208201905092915050565b60005b8381101561197c578082015181840152602081019050611961565b8381111561198b576000848401525b50505050565b6000601f19601f8301169050919050565b60006119ad82611942565b6119b7818561194d565b93506119c781856020860161195e565b6119d081611991565b840191505092915050565b600060208201905081810360008301526119f581846119a2565b905092915050565b600073ffffffffffffffffffffffffffffffffffffffff82169050919050565b6000611a28826119fd565b9050919050565b611a3881611a1d565b82525050565b6000602082019050611a536000830184611a2f565b92915050565b6000819050919050565b611a6c81611a59565b82525050565b6000602082019050611a876000830184611a63565b92915050565b600080fd5b611a9b81611a1d565b8114611aa657600080fd5b50565b600081359050611ab881611a92565b92915050565b611ac781611a59565b8114611ad257600080fd5b50565b600081359050611ae481611abe565b92915050565b600080600060608486031215611b0357611b02611a8d565b5b6000611b1186828701611aa9565b9350506020611b2286828701611aa9565b9250506040611b3386828701611ad5565b9150509250925092565b60008115159050919050565b611b5281611b3d565b82525050565b6000602082019050611b6d6000830184611b49565b92915050565b600060208284031215611b8957611b88611a8d565b5b6000611b9784828501611aa9565b91505092915050565b600060ff82169050919050565b611bb681611ba0565b82525050565b6000602082019050611bd16000830184611bad565b92915050565b600060208284031215611bed57611bec611a8d565b5b6000611bfb84828501611ad5565b91505092915050565b60008060408385031215611c1b57611c1a611a8d565b5b6000611c2985828601611aa9565b9250506020611c3a85828601611ad5565b9150509250929050565b60008060408385031215611c5b57611c5a611a8d565b5b6000611c6985828601611aa9565b9250506020611c7a85828601611aa9565b9150509250929050565b7f4e487b7100000000000000000000000000000000000000000000000000000000600052602260045260246000fd5b60006002820490506001821680611ccb57607f821691505b602082108103611cde57611cdd611c84565b5b50919050565b7f746f6b656e2062616c616e6365206f7220616c6c6f77616e6365206973206c6f60008201527f776572207468616e20616d6f756e742072657175657374656400000000000000602082015250565b6000611d4060398361194d565b9150611d4b82611ce4565b604082019050919050565b60006020820190508181036000830152611d6f81611d33565b9050919050565b7f4e487b7100000000000000000000000000000000000000000000000000000000600052601160045260246000fd5b6000611db082611a59565b9150611dbb83611a59565b9250827fffffffffffffffffffffffffffffffffffffffffffffffffffffffffffffffff03821115611df057611def611d76565b5b828201905092915050565b6000611e0682611a59565b9150611e1183611a59565b925082821015611e2457611e23611d76565b5b828203905092915050565b7f4f776e61626c653a2063616c6c6572206973206e6f7420746865206f776e6572600082015250565b6000611e6560208361194d565b9150611e7082611e2f565b602082019050919050565b60006020820190508181036000830152611e9481611e58565b9050919050565b600081519050611eaa81611abe565b92915050565b600060208284031215611ec657611ec5611a8d565b5b6000611ed484828501611e9b565b91505092915050565b7f42616c616e636520697320300000000000000000000000000000000000000000600082015250565b6000611f13600c8361194d565b9150611f1e82611edd565b602082019050919050565b60006020820190508181036000830152611f4281611f06565b9050919050565b6000604082019050611f5e6000830185611a2f565b611f6b6020830184611a63565b9392505050565b611f7b81611b3d565b8114611f8657600080fd5b50565b600081519050611f9881611f72565b92915050565b600060208284031215611fb457611fb3611a8d565b5b6000611fc284828501611f89565b91505092915050565b6000606082019050611fe06000830186611a2f565b611fed6020830185611a2f565b611ffa6040830184611a63565b949350505050565b7f45524332303a206d696e7420746f20746865207a65726f206164647265737300600082015250565b6000612038601f8361194d565b915061204382612002565b602082019050919050565b600060208201905081810360008301526120678161202b565b9050919050565b7f746f6b656e2062616c616e6365206973206c6f776572207468616e207468652060008201527f76616c7565207265717565737465640000000000000000000000000000000000602082015250565b60006120ca602f8361194d565b91506120d58261206e565b604082019050919050565b600060208201905081810360008301526120f9816120bd565b9050919050565b7f496e646976696475616c2062616c616e63652069732030210000000000000000600082015250565b600061213660188361194d565b915061214182612100565b602082019050919050565b6000602082019050818103600083015261216581612129565b9050919050565b7f4f776e61626c653a206e6577206f776e657220697320746865207a65726f206160008201527f6464726573730000000000000000000000000000000000000000000000000000602082015250565b60006121c860268361194d565b91506121d38261216c565b604082019050919050565b600060208201905081810360008301526121f7816121bb565b9050919050565b7f4f6e6c79204f776e65722068617665207065726d697373696f6e732100000000600082015250565b6000612234601c8361194d565b915061223f826121fe565b602082019050919050565b6000602082019050818103600083015261226381612227565b905091905056fea264697066735822122073c911b2a20fa64f7951e9d265753217bfc857e516a93c85ee07cb5d40919d1964736f6c634300080d0033",
  "immutableReferences": {},
  "source": "pragma solidity ^0.8.11;\r\nimport \"../@openzeppelin/contracts/access/Ownable.sol\";\r\nimport \"../@openzeppelin/contracts/utils/Counters.sol\";\r\n\r\nimport \"../hardhat/console.sol\";\r\nimport \"./Bank.sol\";\r\n\r\n// Interface do customToken\r\n\r\ncontract LubyGame is ERC20, Ownable {\r\n\tevent StartGame(address from, uint256 amount);\r\n\tevent WithDraw(address from, address to, uint256 amount);\r\n\tevent ClaimBalance(address from, address to, uint256 amount);\r\n\r\n\tmapping(address => uint256) private individualBalance;\r\n\r\n\tToken bank;\r\n\r\n\tconstructor() {\r\n\t\tbank = Token(address(this));\r\n\t}\r\n\r\n\tfunction mintLbc(uint256 amount) public returns (bool) {\r\n\t\tToken contractAddress = Token(address(this));\r\n\r\n\t\tcontractAddress.mint(msg.sender, amount);\r\n\r\n\t\treturn true;\r\n\t}\r\n\r\n\tfunction startGame(uint256 amount) public {\r\n\t\tbank.transferFrom(msg.sender, address(this), amount);\r\n\r\n\t\tindividualBalance[msg.sender] += amount;\r\n\r\n\t\temit StartGame(msg.sender, amount);\r\n\t}\r\n\r\n\tfunction correctAnswer(uint256 amount) public virtual {\r\n\t\tuint256 value = amount;\r\n\r\n\t\tindividualBalance[msg.sender] += value;\r\n\t}\r\n\r\n\tfunction incorrectAnswer(uint256 amount) public virtual {\r\n\t\tuint256 value = amount;\r\n\r\n\t\tindividualBalance[msg.sender] -= value;\r\n\t}\r\n\r\n\tfunction withdraw() public onlyOwner {\r\n\t\tuint256 balance = bank.getBalance(msg.sender);\r\n\t\trequire(balance > 0, \"Balance is 0\");\r\n\r\n\t\tbank.transfer(msg.sender, balance);\r\n\r\n\t\temit WithDraw(address(this), msg.sender, balance);\r\n\t}\r\n\r\n\tfunction claimBalance(uint256 bonus) public {\r\n\t\trequire(individualBalance[msg.sender] > 0, \"Individual balance is 0!\");\r\n\r\n\t\tbank.transfer(msg.sender, individualBalance[msg.sender] + bonus);\r\n\r\n\t\tindividualBalance[msg.sender] = 0;\r\n\r\n\t\temit ClaimBalance(\r\n\t\t\taddress(this),\r\n\t\t\tmsg.sender,\r\n\t\t\tindividualBalance[msg.sender] + bonus\r\n\t\t);\r\n\t}\r\n\r\n\tfunction getBalanceIndividual() public view returns (uint256 balance) {\r\n\t\treturn individualBalance[msg.sender];\r\n\t}\r\n}\r\n",
  "sourcePath": "C:\\Users\\gtool\\Documents\\luby\\ProvaBlockchain\\new-lubygame-truffle\\contracts\\LubyCoin\\LubyGame.sol",
  "compiler": {
    "name": "solc",
    "version": "0.8.13+commit.abaa5c0e.Emscripten.clang"
  },
  "schemaVersion": "3.4.7",
  "updatedAt": "2022-05-04T12:49:24.483Z",
  "networkType": "ethereum",
  "devdoc": {
    "kind": "dev",
    "methods": {
      "allowance(address)": {
        "params": {
          "_owner": "The address of the account owning tokens"
        },
        "returns": {
          "remaining": "Amount of remaining tokens allowed to spent"
        }
      },
      "approve(uint256)": {
        "params": {
          "_value": "The amount of wei to be approved for transfer"
        },
        "returns": {
          "success": "Whether the approval was successful or not"
        }
      },
      "owner()": {
        "details": "Returns the address of the current owner."
      },
      "renounceOwnership()": {
        "details": "Leaves the contract without owner. It will not be possible to call `onlyOwner` functions anymore. Can only be called by the current owner. NOTE: Renouncing ownership will leave the contract without an owner, thereby removing any functionality that is only available to the owner."
      },
      "transfer(address,uint256)": {
        "params": {
          "_to": "The address of the recipient",
          "_value": "The amount of token to be transferred"
        },
        "returns": {
          "success": "Whether the transfer was successful or not"
        }
      },
      "transferFrom(address,address,uint256)": {
        "params": {
          "_from": "The address of the sender",
          "_to": "The address of the recipient",
          "_value": "The amount of token to be transferred"
        },
        "returns": {
          "success": "Whether the transfer was successful or not"
        }
      },
      "transferOwnership(address)": {
        "details": "Transfers ownership of the contract to a new account (`newOwner`). Can only be called by the current owner."
      }
    },
    "version": 1
  },
  "userdoc": {
    "kind": "user",
    "methods": {
      "transfer(address,uint256)": {
        "notice": "send `_value` token to `_to` from `msg.sender`"
      },
      "transferFrom(address,address,uint256)": {
        "notice": "send `_value` token to `_to` from `_from` on the condition it is approved by `_from`"
      }
    },
    "version": 1
  }
}